:1000000000800020B5030000FD030000FF03000096
:1000100000000000000000000000000000000000E0
:1000200000000000000000000000000001040000CB
:1000300000000000000000000304000005040000B0
:100040000704000007040000070400000704000084
:10005000070400000000000007040000070400007F
:100060000704000007040000070400000704000064
:100070000704000007040000070400000704000054
:100080000704000007040000070400000704000044
:100090000704000007040000070400000704000034
:1000A000070400000704000000000000000000003A
:1000B0000000000000000000000000000000000040
:1000C000054B0648033310B51B1A062B03D9044B06
:1000D000002B00D0984710BD680000206800002069
:1000E000000000000648074910B5091A8910CB0F17
:1000F0005918491003D0044B002B00D0984710BD6D
:1001000068000020680000200000000010B5074CC7
:100110002378002B09D1FFF7D3FF054B002B02D02A
:10012000044800E000BF0123237010BD68000020D8
:10013000000000002C040000094B10B5002B03D078
:100140000849094800E000BF08480368002B02D1B5
:10015000FFF7C8FF10BD064B002BF9D09847F7E713
:10016000000000006C0000202C040000680000204B
:1001700000000000164B002B00D1144B9D4640227E
:1001800092029A1A924600218B460F461348144A4F
:10019000121A00F067F80F4B002B00D098470E4B57
:1001A000002B00D098470020002104000D000D48CE
:1001B000002802D00C4800E000BF00F02DF820001D
:1001C000290000F0A3F800F011F8C0460000080074
:1001D00000800020000000000000000068000020F7
:1001E000840000200000000000000000084B10B553
:1001F0000400002B02D0002100E000BF054B18686E
:10020000836A002B00D09847200000F033F8C046E6
:1002100000000000240400000E4B70B500251E00F5
:100220000D4CE41AA410A54204D0AB00F358984733
:100230000135F8E700F0E8F8084B00251E00084CEF
:10024000E41AA410A54204D0AB00F3589847013536
:10025000F8E770BD60000020600000206000002012
:100260006400002003008218934202D01970013309
:10027000FAE77047FEE7C0461D4B1B78012B00D004
:1002800070471C4B1B681B07FAD1F0221A4B1B68E6
:10029000134018D1194B1B6813421CD0154B1B6817
:1002A0001B07EDD1F022144B1B681340402BE7D104
:1002B000124B1B681342E3D1C12380220121DB00D2
:1002C000D205D150DCE7102B01D0302BEAD10B4BFB
:1002D0001B681342E6D10A4A0A4B1A6080220A4B75
:1002E00012021A60024B1B78012BD7D0C8E7C04618
:1002F000E00F00F0E40F00F0E80F00F0EC0F00F06A
:10030000DFFF07C004050040186C0040F8B5A020CE
:10031000F0250023012403216D04C0050133202BA7
:100320000BD02A001A411442F8D01A00C132FF3211
:10033000920001331150202BF3D1A0250B4F0C4E0E
:10034000ED0500240122395DAB598A40A12110003E
:10035000C90098436850FA201340064A4000AB5049
:10036000013400F009F8042CECD1EAE7280400007D
:10037000040500000C05000082B00190019B002BD9
:1003800014D0019B0A48013B01930138C046C04686
:10039000C046C046C046C046C046C046C046C0462D
:1003A000C046C046F1D1019B002BEAD102B0704794
:1003B000E703000003210A4802680A430260094873
:1003C00002680A4302600849084A094B9B1A03DD88
:1003D000043BC858D050FBDC06488047064800471D
:1003E00024050040540500403404000000000020B3
:1003F000680000207902000075010000FEE7FEE7BA
:10040000FEE7FEE7FEE7FEE7F8B5C046F8BC08BC2D
:100410009E467047F8B5C046F8BC08BC9E4670477B
:0C04200043000000000000201516171813
:08042C0048FDFF7F0100000004
:1004340000000000000000000000000000000000B8
:1004440000000000000000000000000000000000A8
:100454002004000000000000000000000000000074
:100464000000000000000000000000000000000088
:100474000000000000000000000000000000000078
:100484000000000000000000000000000000000068
:08049400390100000D01000018
:04000003000003B541
:00000001FF
